:1011D8007D347C07ED1D70011C144C70F7EF1F70F7
:0611E800011E144E70EA26
:0111EE0022DE
:1011EF00766F6C746167653D252E33665600746D9E
:0711FF00703D2564A1E6002C
:03114C00011C0083
:100C0B001211737FF47E011211D812126B120F5D49
:100C1B00051CE51C75F00A84E5F06003020D37E551
:100C2B00197003020CECE47B107A27F9F8AF0FAEC6
:100C3B000EAD0DAC0C120624E47B0AFAF9F8120681
:100C4B0024AF03AD07E4FB7F031211BFE47BE87A0B
:100C5B0003F9F8AF0FAE0EAD0DAC0C120624E47B0E
:100C6B000AFAF9F8120624AF03AD077B017F0212D3
:100C7B0011BFE47B64FAF9F8AF0FAE0EAD0DAC0CFF
:100C8B00120624E47B0AFAF9F8120624AF03AD0727
:100C9B00E4FB7F011211BFE47B0AFAF9F8AF0FAE48
:100CAB000EAD0DAC0C120624E47B0AFAF9F8120611
:100CBB0024AF03AD07E4FBFF1211BFAF0FAE0EADB8
:100CCB000DAC0CE41202ACE4FBFA797A7844120214
:100CDB000F8F288E278D268C257BFF7A1179EF803D
:100CEB0048AE0AAF0B7C007D0A1205B27C007D0A70
:100CFB001205B2E4FB7F031211BFAE0AAF0B7C00EF
:100D0B007D0A1205B2E4FB7F021211BFE4FB7D0AE0
:100D1B007F011211BFE4FB7D0BFF1211BF7BFF7A2A
:100D2B001179FD850A25850B261207FE7F327E0081
:060D3B001211D8020C1891
:101173005394FE4393014394F053930F7592FF7579
:1011830091007596FF75950075B2FF75B100121247
:071193003012121D021206CA
:10121D00538E7F5389F0758A30758CF8D2A9C28DA3
:03122D00D28C223E
:03126B00D2AF22DD
:10114F0002080000020A0000040C00000000011059
:01115F00018E
:1012300053BCF043BC08C2DEA2DE92DED2DE021254
:01124000416C
:0E12410043BC807F017E001211D843BC4022C6
:100F5D00121241E5BC30E5FBAFBDEF75F010A4F505
:100F6D000985F008E5BEC4540F4209AE08AF097CEF
:100F7D000C7DE412071AE4FB7A10F9F81206248F9F
:100F8D000F8E0E8D0D8C0C120E768E0A8F0BC3E507
:100F9D000B941CE50A64809480400553800F8042B9
:100FAD00C3E50B941AE50A6480948040084380F0F1
:100FBD0053801F802DC3E50B9418E50A648094803F
:100FCD0040084380F053803F8018C3E50B9416E52D
:100FDD000A6480948040084380F053807F800343EF
:100FED0080F0C3E50B941DE50A648094805005756F
:100FFD001001801BD3E50B941DE50A64809480409D
:10100D000EE510600AE4F5107FD07E0712126353CF
:03101D00BCDF2213
:0C124F00FC60DAF266B6BEE0FEF6C69C5B
:091160000412000000000111005E
:1011230075A0FF74122511F8E6F5907FFEA811EF64
:1011330008800123D8FDF5A00511D3E511940374AC
:091143008094804003E4F51122C0
:1011BF00ED90124F93FEEB60047D0180027D00EEF7
:0911CF004DFE74122FF8A6062251
:03000B000210AC34
:1010AC00C0E0C0F0C083C082C0D075D000C000C00A
:1010BC0001C002C003C004C005C006C007C28DC277
:1010CC008C1211231210F6758CF8758A30D28CD0D4
:1010DC0007D006D005D004D003D002D001D000D068
:0A10EC00D0D082D083D0F0D0E032E3
:080003008F3E12125BAF3E229A
:01126E00225D
:10120600759850438E04438E0175D78F75D6FD436E
:071216008E10C298C299225C
:08125B008F993099FDC2992220
:10119A008B168A178918AB16AA17A91812055A604E
:1011AA00130518E5187002051714F912055AFF12EB
:0511BA00125B80E2223F
:080E76008F258E248D238C22B0
:100E7E00E4F529F528F527F526F529F528F5277542
:100E8E00263F1202ACAB29AA28A927A826120106D2
:100E9E00C004C005C006C007C374E49525FF740CDA
:100EAE009524FEE49523FDE49522FCE41202ACA801
:100EBE0004A905AA06AB07D007D006D005D00412A8
:100ECE00020F8F298E288D278C26120D758F298E55
:100EDE00288D278C267B007AE07976784512020FD2
:100EEE008F298E288D278C267B337A13799578431C
:100EFE001201068F298E288D278C26E4FFFE7D8019
:100F0E007C3FAB29AA28A927A826120015A804A958
:100F1E0005AA06AB077F337E137D957C4312020F25
:100F2E008F298E288D278C267B337A937988784368
:100F3E001200118F298E288D278C26E4FFFEFD7C52
:0F0F4E003FAB29AA28A927A8261200150202EAFC
:09116900011900011A00011B002C
:1010F60030C906E4F51AF51B22E51A701F051BC355
:10110600E51B9414748094804012E4F51B751A0153
:0D111600E51970047F0180027F008F19220F
:08126300C2B31211D8D2B3226C
:10000E00020356E86480F8E933E83360110460F0C7
:10001E00ED33EC337009E8FCE9FDEAFEEBFF220458
:10002E0060DED3EB9FEA9EE99DE8C2E78CF0C2F753
:10003E0095F0400CE8CCF8E9CDF9EACEFAEBCFFB1F
:10004E0012032185D0F05804700320D5B3E8047054
:10005E00075002B2D502036092D5EC0460F7E4CCEF
:10006E00C0E0C398F8603B94186008400DD0E0FBE8
:10007E00020338E4FBFAC9FC8028E830E406E4C940
:10008E00FBE4CAFCE830E305E4C9CACBFCE854073C
:10009E006010F8C3E913F9EA13FAEB13FBEC13FC47
:1000AE00D8F130F52FC3E49CFCEF9BFFEE9AFEEDEA
:1000BE0099FDD0E0FBEF4E4D4C701222DB03020394
:1000CE005DEC2CFCEF33FFEE33FEED33FDED30E750
:1000DE00EB020338EF2BFFEE3AFEED39FDD0E0FBDD
:1000EE0050130BBB0003020360ED13FDEE13FEEF86
:0800FE0013FFEC13FC020338B0
:10010600EC4D6011E8497017ED33EC3304600DE4F3
:10011600FCFFFEFD22E933E8330470F802035612B1
:10012600032158046009E4CC2481500628500902B2
:10013600036028400302035DC0E0EB4A7044B980C7
:1001460006D0E0FB02034CEF4E701CBD8008EBFFAF
:10015600EAFEE9FD80EBE98DF0A4FEE5F00201EF91
:10016600E9CDF9EAFEEBFFEF89F0A4FCE5F0CE89D4
:10017600F0A42EFFE435F0CD89F0A42DFEE435F091
:100186008067EF4E7005BD80D780C3EF8BF0A4ACBF
:10019600F0EE8BF0A42CFCE435F0F8EF8AF0A42CFA
:1001A600E5F038FCE433CB8DF0A42CFCE5F03BF80D
:1001B600EE8AF0A42CFCE5F038F8E433CF89F0A4FD
:1001C6002CFCE5F038CF3400CE89F0A42FFFE5F003
:1001D6003EFEE433C98DF0A42EFEE5F039CD8AF05B
:1001E600A42FFFE5F03EFEE43DFD33D0E0FB5007D3
:1001F6000BBB000F020360EC2CFCEF33FFEE33FE6B
:06020600ED33FD02033898
:10020C00020360EC5D046005E859047003020356B8
:10021C00120321580460F6EC4860F2EC7004FDFE09
:10022C00FF22C860DB2481C85009C39860025006C5
:10023C0002035D9850CAF582E9294B4A7005AB82DE
:10024C0002034C75F0007C1A7880C3EF9BEE9AED9C
:10025C0099400DC3EF9BFFEE9AFEED99FDE842F03D
:10026C00DC23ACF0D0E0FFD0E0FED0E0FDAB822090
:10027C00E7101BEB60BAEC2CFCEF33FFEE33FEED1A
:10028C0033FD020338E803F830E705C0F075F000E1
:10029C00EF2FFFEE33FEED33FD40B830E7C280AAFE
:1002AC0075F020800E75F010800575F0087D007ECD
:1002BC00007F003392D530D5031206B6EC334010D4
:1002CC00EF33FFEE33FEED33FDEC33FCD5F0ED22D6
:0E02DC00E5F0247EA2D513CC92E7CDCEFF2212
:1002EA00EDD2E7CD33EC3392D524814006E4FFFE0C
:1002FA00FDFC22FCE4CFCECDCC24E0501174FF806B
:10030A00EDC3CC13CCCD13CDCE13CECF13CF047007
:07031A00F030D5DE0206B64B
:10079C00E5392425F8E60539227822300702782538
:1007AC00E475F0011206E402055A2000EB7F2ED20C
:1007BC00008018EF540F2490D43440D4FF30040B35
:1007CC00EF24BFB41A0050032461FFE53A60021510
:1007DC003A053DE53D7002053C30070D7822E47585
:1007EC00F0011206E4EF0205A00200037403D20725
:1007FC008003E4C207F5398B228A238924E4F53A75
:10080C00F53CF53DE53A60077F201207D780F5757A
:10081C003BFFC201C200C202C203C205C206C2082B
:10082C001207A5FF700D3007057F001207E8AF3DDA
:10083C00AE3C22B4255FC2D5C2041207A5FF24D05A
:10084C00B40A00501A75F00A783A30D50508B6FF8C
:10085C000106C6A426F620D5047002D20380D92442
:10086C00CFB41A00EF5004C2E5D204020AD5D2016B
:10087C0080C6D20080C0D20280BCD2D580BAD2054C
:10088C0080B47F201207D72002077401B53A0040CC
:10089C00F112079CFF1207D7020810D208D206806B
:1008AC009512079CFB12079CFA12079CF94A4B7095
:1008BC000679CC7A0B7BFF20022EE53A602A7E006B
:1008CC008E8275830012057360060EEE653B70F028
:1008DC00C2D5EBC0E0EAC0E0E9C0E0EE120B35D0C7
:1008EC00E0F9D0E0FAD0E0FB12055AFF60AAEBC0A9
:1008FC00E0EAC0E0E9C0E01207D7D0E02401F9D06B
:10090C00E03400FAD0E0FBE53B0460DCD53BD98059
:10091C0087D20280A2120B1860F7E53B700104121B
:10092C00036BA93B600DE53B600914F53B120BBF53
:10093C00EF60F3EA30E702F404C3995077EAF42548
:10094C003B0430E701E404F53B800D120B1860C149
:10095C00EA053B253B12036BEA7838F630E701E4F5
:10096C00253B04D53B0420050114120B35E4C0E0F3
:10097C00120BBF7838E6601320E70714F61207BF96
:10098C00802204F6D0E014C0E07F001207BFE53BE4
:10099C0060071207B6153B800B3005031207B6D063
:1009AC00E0020810D0E00480C5120B1860A0E53BF3
:1009BC000412036B7838EAF6E53B2005026001046B
:0509CC002404120B35AC
:1009D10074FF04C0E0120BBF1207BFE53B20050204
:1009E10060031207B6D0E0B53BE87F451207C9782E
:1009F10038E67F2B30E7047F2DF404C0E01207D7DF
:100A0100D0E075F00A84C0F01207C0D0E01207C030
:100A1100020810791080027908C206C2088008D243
:100A2100D5790A8004790AC2D5E53B047002F53B09
:100A3100E4FAFDFEFF12079CFC7B0820011312075C
:100A41009CFD7B1030000A12079CFE12079CFF7B65
:100A510020EC3382D592D55013C3E43000069FFFBA
:100A6100E49EFEE42001039DFDE49CFCE4CBF8C27E
:100A710001EC700CCFCECDCCE824F8F870F38017E0
:100A8100C3EF33FFEE33FEED33FDEC33FCEB33FB11
:100A9100994002FB0FD8E9EB300105F8D0E0C448DA
:100AA100B201C0E00AEC4D4E4F78207B0070C2EAE3
:100AB100B53B0040BCC0E0120B37D0F0D0E02001C4
:100AC10004C4C0E0C4B201C0F01207C0D0F0D5F038
:100AD100EB0208101206F408AD530A1458087E4CB4
:100AE100087A420A184F0A20440A20490893430A07
:100AF100265509574609B5450921470BEC5008828F
:100B01002D08862E08A92B088A2308A7200BD52A91
:100B1100084248000008A1E53BB4FF03753B0612FB
:100B2100079CFC12079CFD12079CFE12079CFF7894
:100B31003102039A790AA2D5200314300509B910AC
:100B4100020404B9080104A2D520060250010420C0
:100B510002689202B53A005034C0E07F2030031998
:100B61007F30A20272067205500F120B8EC202C2B2
:100B710006C205C2087F30800F300503E9C0E012CC
:100B810007D7300503D0E0F9D0E0B53ACC300517EE
:100B91007F30B9100C1207D77F583004077F788057
:100BA10003B908031207D73002057F2D0207D77F4B
:100BB100202008F87F2B2006F322920280CF7F00AD
:100BC100B4070050052431F8E6FF22286E756C6CDD
:100BD1002900D20112079C3001F8C201783A30D5C0
:100BE1000108F60208422D5043495812079C24037C
:100BF100B405004001E4900BE7931207C8743A1260
:0A0C010007C8D203753A04020A1472
:100D41003E9248DA3ECCCCCD3F2AAAAB400000000F
:100D51003F8000003F9837F03FB504F33FD744FC94
:100D61003E3172173EB172173F0515913EDE5BD9D8
:100D7100D2008002C200EDD2E7F8CD33EC3304702B
:100D81000BBD800592D502036002035640FBD314CC
:100D910060F2F5F07C3FEE7A00C39496C8948B40E4
:100DA100230AC89469C8941A401A0AC89468C89456
:100DB1001F40110AC8945AC89425400805F07A00CA
:100DC100CDC2E7CDC0F08C2A8D2B8E2C8F2DEA233E
:100DD10023C0E02451F582E4340DF5831206D412C8
:100DE1000015ECC0E0EDC0E0EEC0E0EFC0E012069F
:100DF100C4A82AA92BAA2CAB2D120011D0E0FBD03C
:100E0100E0FAD0E0F9D0E0B2E7F812020F8C2A8DB7
:100E11002B8E2C8F2D900D41740312049DA82AA9AD
:100E21002BAA2CAB2D120106D0E0600F245DF582B8
:100E3100E4340DF5831206D41200158C2A8D2B8E05
:100E41002C8F2DD0E0C3947FFDE49400FC1202B1FD
:100E51007B187A727931783F120106A82AA92BAA48
:100E61002CAB2D12001530000B7BD97A5B79DE7823
:050E71003E1201062203
:10032100E9D2E7C933E833F892D5EDD2E7CD33EC22
:0703310033FC5002B2D5229B
:10033800EC30E7100FBF000C0EBE00080DBD000426
:100348000BEB6014A2D5EB13FCED92E7FD2274FFD2
:10035800FCFDFEFF22E480F8A2D574FF13FC7D802B
:03036800E480EF3F
:10036B00F920E72824F950037907E4F42402FB1859
:10037B00DBFDE624FB5014E9600DE4F618E604F609
:0F038B00B40A08E4F6D9F57401F60A22C2D522A5
:10039A00ED33EC3392D5FA602AB4FF33EDC2E77B32
:1003AA00FF60067A0379BFE4227A0379C820D5046C
:1003BA007A0379C3224E614E002B494E46002D49DD
:1003CA004E4600E47A08F608DAFC7B00740722E855
:1003DA00C0E0ECC0E0EDC0E0EEC0E0EFC0E0EA75DE
:1003EA00F010A4CAABF075F04DA42BFBE435F0FC79
:1003FA00EA2410FAEB34C5FBEC34D9FCEDC2E7FF72
:10040A0075F056A4F42411C5F0F434C58FF0A42A6B
:10041A00E5F03BE43CF620E71412051AD0E0FFD0E1
:10042A00E0FED0E0FDD0E0FC12020F8014F40412CA
:10043A00051AD0E0FFD0E0FED0E0FDD0E0FC1201CA
:10044A0006D0E0F8E6FAEDD2E7CD33EC332482FBAE
:10045A00E4C3CF33CFCE33CECD33CD33DBF37B07FB
:10046A0075F00A846004F6081B0AE5F0F6088FF0B6
:10047A00740AA4FFACF08EF0740AA42CFEACF050FF
:10048A00010C8DF0740AA42CFDE435F0F608DBDECD
:03049A00740722C2
:10049D00C0E0EFFBEEFAEDF9ECF8120106D0E0F555
:1004AD00F0EFFBEEFAEDF9ECF81206C4A3A3A3A34B
:1004BD00E8C0E0E9C0E0EAC0E0EBC0E0C0F0120146
:1004CD00061206D4A3A3A3A3120015D0F0D0E0FB0F
:0D04DD00D0E0FAD0E0F9D0E0F8D5F0D4225C
:1004EA003F8000004120000042C80000447A00001A
:1004FA00461C400047C35000497424004B1896809C
:10050A004CBEBC205A0E1BCA6753C21C749DC5AE92
:10051A00FB60065407601C2323120548EB5438601D
:10052A0009120534120543120106ECF8EDF9EEFA48
:10053A00EFCB22EB12054380F1543803241C9004BC
:10054A00EAFE93FC0EEE93FD0EEE930ECE93FF227F
:03000000021020CB
:0C102000787FE4F6D8FD75813E02106771
:10055A00BB010689828A83E0225002E722BBFE029F
:09056A00E32289828A83E49322D2
:10057300BB010CE58229F582E5833AF583E022503D
:1005830006E92582F8E622BBFE06E92582F8E22287
:0D059300E58229F582E5833AF583E49322A1
:1005A000BB010689828A83F0225002F722BBFE013A
:0205B000F32234
:1005B200C2D5EC30E709B2D5E4C39DFDE49CFCEE64
:1005C20030E715B2D5E4C39FFFE49EFE120747C38E
:1005D200E49DFDE49CFC800312074730D507C3E489
:0605E2009FFFE49EFE22D3
:1005E80075F008758200EF2FFFEE33FECD33CDCCCA
:1005F80033CCC58233C5829BED9AEC99E58298404D
:100608000CF582EE9BFEED9AFDEC99FC0FD5F0D629
:10061800E4CEFBE4CDFAE4CCF9A88222B800C1B953
:100628000059BA002DEC8BF084CFCECDFCE5F0CB91
:10063800F97818EF2FFFEE33FEED33FDEC33FCEBCA
:1006480033FB10D703994004EB99FB0FD8E5E4F985
:10065800FA227818EF2FFFEE33FEED33FDEC33FC72
:10066800C933C910D7059BE99A4007EC9BFCE99A66
:10067800F90FD8E0E4C9FAE4CCFB2275F010EF2FAB
:10068800FFEE33FEED33FDCC33CCC833C810D707AB
:100698009BEC9AE899400AED9BFDEC9AFCE899F8E6
:0E06A8000FD5F0DAE4CDFBE4CCFAE4C8F92279
:0E06B600C3E49FFFE49EFEE49DFDE49CFC2255
:1006C400E493FC740193FD740293FE740393FF227C
:1006D400E493F8740193F9740293FA740393FB227C
:1006E400FAE6FB0808E6F925F0F618E6CA3AF62217
:1006F400D083D082F8E4937012740193700DA3A395
:1007040093F8740193F5828883E4737402936860A8
:06071400EFA3A3A380DFA8
:10071A00EC8EF0A4CCC5F0CCCDF8EFA4CEC5F02D6C
:10072A00FDE43CFCE8A42EC8C5F03DFDE43CFCEF2A
:0D073A00A4FFE5F028FEE43DFDE43CFC22B8
:10102C00020C0BE493A3F8E493A34003F68001F2C3
:10103C0008DFF48029E493A3F85407240CC8C333C5
:10104C00C4540F4420C8834004F456800146F6DF94
:10105C00E4800B010204081020408090114CE47EC7
:10106C00019360BCA3FF543F30E509541FFEE49389
:10107C00A360010ECF54C025E060A840B8E493A350
:10108C00FAE493A3F8E493A3C8C582C8CAC583CA7B
:10109C00F0A3C8C582C8CAC583CADFE9DEE780BE33
:01117200007C
:10074700BC000BBE0029EF8DF084FFADF022E4CC96
:10075700F875F008EF2FFFEE33FEEC33FCEE9DEC5F
:10076700984005FCEE9DFE0FD5F0E9E4CEFD22EDA5
:10077700F8F5F0EE8420D21CFEADF075F008EF2FEF
:10078700FFED33FD4007985006D5F0F222C398FDE0
:050797000FD5F0EA227D
:00000001FF
